{
  "_format": "hh-sol-artifact-1",
  "contractName": "Raffle",
  "sourceName": "contracts/Raffle.sol",
  "abi": [
    {
      "inputs": [
        {
          "internalType": "address",
          "name": "vrfCoordinatorV2",
          "type": "address"
        },
        {
          "internalType": "uint256",
          "name": "entranceFee",
          "type": "uint256"
        },
        {
          "internalType": "bytes32",
          "name": "gasLane",
          "type": "bytes32"
        },
        {
          "internalType": "uint64",
          "name": "subscriptionId",
          "type": "uint64"
        },
        {
          "internalType": "uint32",
          "name": "callbackGasLimit",
          "type": "uint32"
        },
        {
          "internalType": "uint256",
          "name": "interval",
          "type": "uint256"
        }
      ],
      "stateMutability": "nonpayable",
      "type": "constructor"
    },
    {
      "inputs": [
        {
          "internalType": "address",
          "name": "have",
          "type": "address"
        },
        {
          "internalType": "address",
          "name": "want",
          "type": "address"
        }
      ],
      "name": "OnlyCoordinatorCanFulfill",
      "type": "error"
    },
    {
      "inputs": [],
      "name": "Raffle__NotEnoughETHEntered",
      "type": "error"
    },
    {
      "inputs": [],
      "name": "Raffle__NotOpen",
      "type": "error"
    },
    {
      "inputs": [],
      "name": "Raffle__TransferFailed",
      "type": "error"
    },
    {
      "inputs": [
        {
          "internalType": "uint256",
          "name": "currentBalance",
          "type": "uint256"
        },
        {
          "internalType": "uint256",
          "name": "numPlayers",
          "type": "uint256"
        },
        {
          "internalType": "uint256",
          "name": "raffleState",
          "type": "uint256"
        }
      ],
      "name": "Raffle__UpkeepNotNeeded",
      "type": "error"
    },
    {
      "anonymous": false,
      "inputs": [
        {
          "indexed": true,
          "internalType": "address",
          "name": "player",
          "type": "address"
        }
      ],
      "name": "RaffleEnter",
      "type": "event"
    },
    {
      "anonymous": false,
      "inputs": [
        {
          "indexed": true,
          "internalType": "uint256",
          "name": "requestId",
          "type": "uint256"
        }
      ],
      "name": "RequestedRaffleWinner",
      "type": "event"
    },
    {
      "anonymous": false,
      "inputs": [
        {
          "indexed": true,
          "internalType": "address",
          "name": "winner",
          "type": "address"
        }
      ],
      "name": "WinnerPicked",
      "type": "event"
    },
    {
      "inputs": [
        {
          "internalType": "bytes",
          "name": "",
          "type": "bytes"
        }
      ],
      "name": "checkUpkeep",
      "outputs": [
        {
          "internalType": "bool",
          "name": "upkeepNeeded",
          "type": "bool"
        },
        {
          "internalType": "bytes",
          "name": "",
          "type": "bytes"
        }
      ],
      "stateMutability": "view",
      "type": "function"
    },
    {
      "inputs": [],
      "name": "enterRaffle",
      "outputs": [],
      "stateMutability": "payable",
      "type": "function"
    },
    {
      "inputs": [],
      "name": "getEntranceFee",
      "outputs": [
        {
          "internalType": "uint256",
          "name": "",
          "type": "uint256"
        }
      ],
      "stateMutability": "view",
      "type": "function"
    },
    {
      "inputs": [],
      "name": "getNumWords",
      "outputs": [
        {
          "internalType": "uint256",
          "name": "",
          "type": "uint256"
        }
      ],
      "stateMutability": "view",
      "type": "function"
    },
    {
      "inputs": [
        {
          "internalType": "uint256",
          "name": "index",
          "type": "uint256"
        }
      ],
      "name": "getPlayer",
      "outputs": [
        {
          "internalType": "address",
          "name": "",
          "type": "address"
        }
      ],
      "stateMutability": "view",
      "type": "function"
    },
    {
      "inputs": [],
      "name": "getRaffleState",
      "outputs": [
        {
          "internalType": "enum Raffle.RaffleState",
          "name": "",
          "type": "uint8"
        }
      ],
      "stateMutability": "view",
      "type": "function"
    },
    {
      "inputs": [],
      "name": "getRecentWinner",
      "outputs": [
        {
          "internalType": "address",
          "name": "",
          "type": "address"
        }
      ],
      "stateMutability": "view",
      "type": "function"
    },
    {
      "inputs": [
        {
          "internalType": "bytes",
          "name": "",
          "type": "bytes"
        }
      ],
      "name": "performUpkeep",
      "outputs": [],
      "stateMutability": "nonpayable",
      "type": "function"
    },
    {
      "inputs": [
        {
          "internalType": "uint256",
          "name": "requestId",
          "type": "uint256"
        },
        {
          "internalType": "uint256[]",
          "name": "randomWords",
          "type": "uint256[]"
        }
      ],
      "name": "rawFulfillRandomWords",
      "outputs": [],
      "stateMutability": "nonpayable",
      "type": "function"
    }
  ],
  "bytecode": "0x6101606040523480156200001257600080fd5b50604051620016c4380380620016c4833981810160405281019062000038919062000294565b858073ffffffffffffffffffffffffffffffffffffffff1660808173ffffffffffffffffffffffffffffffffffffffff1681525050508460a081815250508573ffffffffffffffffffffffffffffffffffffffff1660c08173ffffffffffffffffffffffffffffffffffffffff16815250508360e081815250508267ffffffffffffffff166101008167ffffffffffffffff16815250508163ffffffff166101208163ffffffff16815250506000600160146101000a81548160ff021916908360018111156200010d576200010c62000330565b5b0217905550426002819055508061014081815250505050505050506200035f565b600080fd5b600073ffffffffffffffffffffffffffffffffffffffff82169050919050565b6000620001608262000133565b9050919050565b620001728162000153565b81146200017e57600080fd5b50565b600081519050620001928162000167565b92915050565b6000819050919050565b620001ad8162000198565b8114620001b957600080fd5b50565b600081519050620001cd81620001a2565b92915050565b6000819050919050565b620001e881620001d3565b8114620001f457600080fd5b50565b6000815190506200020881620001dd565b92915050565b600067ffffffffffffffff82169050919050565b6200022d816200020e565b81146200023957600080fd5b50565b6000815190506200024d8162000222565b92915050565b600063ffffffff82169050919050565b6200026e8162000253565b81146200027a57600080fd5b50565b6000815190506200028e8162000263565b92915050565b60008060008060008060c08789031215620002b457620002b36200012e565b5b6000620002c489828a0162000181565b9650506020620002d789828a01620001bc565b9550506040620002ea89828a01620001f7565b9450506060620002fd89828a016200023c565b93505060806200031089828a016200027d565b92505060a06200032389828a01620001bc565b9150509295509295509295565b7f4e487b7100000000000000000000000000000000000000000000000000000000600052602160045260246000fd5b60805160a05160c05160e0516101005161012051610140516112fc620003c860003960006106e4015260006105af0152600061058c0152600061056b0152600061052f015260008181610212015261030b01526000818161024b015261029f01526112fc6000f3fe6080604052600436106100865760003560e01c80634585e33b116100595780634585e33b14610114578063473f1ddc1461013d57806353a2c19a146101685780636e04ff0d14610193578063e55ae4e8146101d157610086565b806309bc33a71461008b578063115cbaf5146100b65780631fe543e3146100e15780632cfcc5391461010a575b600080fd5b34801561009757600080fd5b506100a061020e565b6040516100ad9190610a86565b60405180910390f35b3480156100c257600080fd5b506100cb610236565b6040516100d89190610b18565b60405180910390f35b3480156100ed57600080fd5b5061010860048036038101906101039190610ccc565b610249565b005b610112610309565b005b34801561012057600080fd5b5061013b60048036038101906101369190610d83565b610478565b005b34801561014957600080fd5b50610152610668565b60405161015f9190610e11565b60405180910390f35b34801561017457600080fd5b5061017d610692565b60405161018a9190610a86565b60405180910390f35b34801561019f57600080fd5b506101ba60048036038101906101b59190610ee1565b6106a1565b6040516101c8929190610fc4565b60405180910390f35b3480156101dd57600080fd5b506101f860048036038101906101f39190610ff4565b61074e565b6040516102059190610e11565b60405180910390f35b60007f0000000000000000000000000000000000000000000000000000000000000000905090565b6000600160149054906101000a90505090565b7f000000000000000000000000000000000000000000000000000000000000000073ffffffffffffffffffffffffffffffffffffffff163373ffffffffffffffffffffffffffffffffffffffff16146102fb57337f00000000000000000000000000000000000000000000000000000000000000006040517f1cf993f40000000000000000000000000000000000000000000000000000000081526004016102f2929190611021565b60405180910390fd5b6103058282610795565b5050565b7f0000000000000000000000000000000000000000000000000000000000000000341015610363576040517fbd4e069500000000000000000000000000000000000000000000000000000000815260040160405180910390fd5b6000600181111561037757610376610aa1565b5b600160149054906101000a900460ff16600181111561039957610398610aa1565b5b146103d0576040517f1425571c00000000000000000000000000000000000000000000000000000000815260040160405180910390fd5b6000339080600181540180825580915050600190039060005260206000200160009091909190916101000a81548173ffffffffffffffffffffffffffffffffffffffff021916908373ffffffffffffffffffffffffffffffffffffffff1602179055503373ffffffffffffffffffffffffffffffffffffffff167f0805e1d667bddb8a95f0f09880cf94f403fb596ce79928d9f29b74203ba284d460405160405180910390a2565b6000610492604051806020016040528060008152506106a1565b509050806105015747600080549050600160149054906101000a900460ff1660018111156104c3576104c2610aa1565b5b6040517f584327aa0000000000000000000000000000000000000000000000000000000081526004016104f89392919061104a565b60405180910390fd5b60018060146101000a81548160ff0219169083600181111561052657610525610aa1565b5b021790555060007f000000000000000000000000000000000000000000000000000000000000000073ffffffffffffffffffffffffffffffffffffffff16635d3b1d307f00000000000000000000000000000000000000000000000000000000000000007f000000000000000000000000000000000000000000000000000000000000000060037f000000000000000000000000000000000000000000000000000000000000000060016040518663ffffffff1660e01b81526004016105f09594939291906110f9565b6020604051808303816000875af115801561060f573d6000803e3d6000fd5b505050506040513d601f19601f820116820180604052508101906106339190611161565b9050807fcd6e45c8998311cab7e9d4385596cac867e20a0587194b954fa3a731c93ce78b60405160405180910390a250505050565b6000600160009054906101000a900473ffffffffffffffffffffffffffffffffffffffff16905090565b6000600163ffffffff16905090565b600060606000600160149054906101000a900460ff1660018111156106c9576106c8610aa1565b5b600060018111156106dd576106dc610aa1565b5b14905060007f00000000000000000000000000000000000000000000000000000000000000006002544261071191906111bd565b119050600080600080549050119050600080471190508380156107315750825b801561073a5750815b80156107435750805b955050505050915091565b6000808281548110610763576107626111f1565b5b9060005260206000200160009054906101000a900473ffffffffffffffffffffffffffffffffffffffff169050919050565b60008080549050826000815181106107b0576107af6111f1565b5b60200260200101516107c2919061124f565b905060008082815481106107d9576107d86111f1565b5b9060005260206000200160009054906101000a900473ffffffffffffffffffffffffffffffffffffffff16905080600160006101000a81548173ffffffffffffffffffffffffffffffffffffffff021916908373ffffffffffffffffffffffffffffffffffffffff1602179055506000600160146101000a81548160ff0219169083600181111561086d5761086c610aa1565b5b0217905550600067ffffffffffffffff81111561088d5761088c610b89565b5b6040519080825280602002602001820160405280156108bb5781602001602082028036833780820191505090505b50600090805190602001906108d19291906109c6565b504260028190555060008173ffffffffffffffffffffffffffffffffffffffff16476040516108ff906112b1565b60006040518083038185875af1925050503d806000811461093c576040519150601f19603f3d011682016040523d82523d6000602084013e610941565b606091505b505090508061097c576040517fa1d04b3900000000000000000000000000000000000000000000000000000000815260040160405180910390fd5b8173ffffffffffffffffffffffffffffffffffffffff167f5b690ec4a06fe979403046eaeea5b3ce38524683c3001f662c8b5a829632f7df60405160405180910390a25050505050565b828054828255906000526020600020908101928215610a3f579160200282015b82811115610a3e5782518260006101000a81548173ffffffffffffffffffffffffffffffffffffffff021916908373ffffffffffffffffffffffffffffffffffffffff160217905550916020019190600101906109e6565b5b509050610a4c9190610a50565b5090565b5b80821115610a69576000816000905550600101610a51565b5090565b6000819050919050565b610a8081610a6d565b82525050565b6000602082019050610a9b6000830184610a77565b92915050565b7f4e487b7100000000000000000000000000000000000000000000000000000000600052602160045260246000fd5b60028110610ae157610ae0610aa1565b5b50565b6000819050610af282610ad0565b919050565b6000610b0282610ae4565b9050919050565b610b1281610af7565b82525050565b6000602082019050610b2d6000830184610b09565b92915050565b6000604051905090565b600080fd5b600080fd5b610b5081610a6d565b8114610b5b57600080fd5b50565b600081359050610b6d81610b47565b92915050565b600080fd5b6000601f19601f8301169050919050565b7f4e487b7100000000000000000000000000000000000000000000000000000000600052604160045260246000fd5b610bc182610b78565b810181811067ffffffffffffffff82111715610be057610bdf610b89565b5b80604052505050565b6000610bf3610b33565b9050610bff8282610bb8565b919050565b600067ffffffffffffffff821115610c1f57610c1e610b89565b5b602082029050602081019050919050565b600080fd5b6000610c48610c4384610c04565b610be9565b90508083825260208201905060208402830185811115610c6b57610c6a610c30565b5b835b81811015610c945780610c808882610b5e565b845260208401935050602081019050610c6d565b5050509392505050565b600082601f830112610cb357610cb2610b73565b5b8135610cc3848260208601610c35565b91505092915050565b60008060408385031215610ce357610ce2610b3d565b5b6000610cf185828601610b5e565b925050602083013567ffffffffffffffff811115610d1257610d11610b42565b5b610d1e85828601610c9e565b9150509250929050565b600080fd5b60008083601f840112610d4357610d42610b73565b5b8235905067ffffffffffffffff811115610d6057610d5f610d28565b5b602083019150836001820283011115610d7c57610d7b610c30565b5b9250929050565b60008060208385031215610d9a57610d99610b3d565b5b600083013567ffffffffffffffff811115610db857610db7610b42565b5b610dc485828601610d2d565b92509250509250929050565b600073ffffffffffffffffffffffffffffffffffffffff82169050919050565b6000610dfb82610dd0565b9050919050565b610e0b81610df0565b82525050565b6000602082019050610e266000830184610e02565b92915050565b600080fd5b600067ffffffffffffffff821115610e4c57610e4b610b89565b5b610e5582610b78565b9050602081019050919050565b82818337600083830152505050565b6000610e84610e7f84610e31565b610be9565b905082815260208101848484011115610ea057610e9f610e2c565b5b610eab848285610e62565b509392505050565b600082601f830112610ec857610ec7610b73565b5b8135610ed8848260208601610e71565b91505092915050565b600060208284031215610ef757610ef6610b3d565b5b600082013567ffffffffffffffff811115610f1557610f14610b42565b5b610f2184828501610eb3565b91505092915050565b60008115159050919050565b610f3f81610f2a565b82525050565b600081519050919050565b600082825260208201905092915050565b60005b83811015610f7f578082015181840152602081019050610f64565b60008484015250505050565b6000610f9682610f45565b610fa08185610f50565b9350610fb0818560208601610f61565b610fb981610b78565b840191505092915050565b6000604082019050610fd96000830185610f36565b8181036020830152610feb8184610f8b565b90509392505050565b60006020828403121561100a57611009610b3d565b5b600061101884828501610b5e565b91505092915050565b60006040820190506110366000830185610e02565b6110436020830184610e02565b9392505050565b600060608201905061105f6000830186610a77565b61106c6020830185610a77565b6110796040830184610a77565b949350505050565b6000819050919050565b61109481611081565b82525050565b600067ffffffffffffffff82169050919050565b6110b78161109a565b82525050565b600061ffff82169050919050565b6110d4816110bd565b82525050565b600063ffffffff82169050919050565b6110f3816110da565b82525050565b600060a08201905061110e600083018861108b565b61111b60208301876110ae565b61112860408301866110cb565b61113560608301856110ea565b61114260808301846110ea565b9695505050505050565b60008151905061115b81610b47565b92915050565b60006020828403121561117757611176610b3d565b5b60006111858482850161114c565b91505092915050565b7f4e487b7100000000000000000000000000000000000000000000000000000000600052601160045260246000fd5b60006111c882610a6d565b91506111d383610a6d565b92508282039050818111156111eb576111ea61118e565b5b92915050565b7f4e487b7100000000000000000000000000000000000000000000000000000000600052603260045260246000fd5b7f4e487b7100000000000000000000000000000000000000000000000000000000600052601260045260246000fd5b600061125a82610a6d565b915061126583610a6d565b92508261127557611274611220565b5b828206905092915050565b600081905092915050565b50565b600061129b600083611280565b91506112a68261128b565b600082019050919050565b60006112bc8261128e565b915081905091905056fea26469706673582212202c5e047520b8128ceb2a5236169418084b324a120c7c8ecc2fcedac4b490b3a964736f6c63430008120033",
  "linkReferences": {},
  "deployedLinkReferences": {}
}